{
  "contractName": "TomideSwap",
  "abi": [
    {
      "inputs": [
        {
          "internalType": "contract DappToken",
          "name": "_token",
          "type": "address"
        }
      ],
      "payable": false,
      "stateMutability": "nonpayable",
      "type": "constructor"
    },
    {
      "constant": true,
      "inputs": [],
      "name": "name",
      "outputs": [
        {
          "internalType": "string",
          "name": "",
          "type": "string"
        }
      ],
      "payable": false,
      "stateMutability": "view",
      "type": "function"
    },
    {
      "constant": true,
      "inputs": [],
      "name": "rate",
      "outputs": [
        {
          "internalType": "uint256",
          "name": "",
          "type": "uint256"
        }
      ],
      "payable": false,
      "stateMutability": "view",
      "type": "function"
    },
    {
      "constant": true,
      "inputs": [],
      "name": "token",
      "outputs": [
        {
          "internalType": "contract DappToken",
          "name": "",
          "type": "address"
        }
      ],
      "payable": false,
      "stateMutability": "view",
      "type": "function"
    },
    {
      "constant": false,
      "inputs": [],
      "name": "buyTokens",
      "outputs": [],
      "payable": true,
      "stateMutability": "payable",
      "type": "function"
    }
  ],
  "bytecode": "0x60806040526040518060600160405280602981526020016104c360299139600090805190602001906100329291906100bf565b50606460025534801561004457600080fd5b506040516104ec3803806104ec8339818101604052602081101561006757600080fd5b810190808051906020019092919050505080600160006101000a81548173ffffffffffffffffffffffffffffffffffffffff021916908373ffffffffffffffffffffffffffffffffffffffff16021790555050610164565b828054600181600116156101000203166002900490600052602060002090601f016020900481019282601f1061010057805160ff191683800117855561012e565b8280016001018555821561012e579182015b8281111561012d578251825591602001919060010190610112565b5b50905061013b919061013f565b5090565b61016191905b8082111561015d576000816000905550600101610145565b5090565b90565b610350806101736000396000f3fe60806040526004361061003f5760003560e01c806306fdde03146100445780632c4e722e146100d4578063d0febe4c146100ff578063fc0c546a14610109575b600080fd5b34801561005057600080fd5b50610059610160565b6040518080602001828103825283818151815260200191508051906020019080838360005b8381101561009957808201518184015260208101905061007e565b50505050905090810190601f1680156100c65780820380516001836020036101000a031916815260200191505b509250505060405180910390f35b3480156100e057600080fd5b506100e96101fe565b6040518082815260200191505060405180910390f35b610107610204565b005b34801561011557600080fd5b5061011e6102f5565b604051808273ffffffffffffffffffffffffffffffffffffffff1673ffffffffffffffffffffffffffffffffffffffff16815260200191505060405180910390f35b60008054600181600116156101000203166002900480601f0160208091040260200160405190810160405280929190818152602001828054600181600116156101000203166002900480156101f65780601f106101cb576101008083540402835291602001916101f6565b820191906000526020600020905b8154815290600101906020018083116101d957829003601f168201915b505050505081565b60025481565b600034600254029050600160009054906101000a900473ffffffffffffffffffffffffffffffffffffffff1673ffffffffffffffffffffffffffffffffffffffff1663a9059cbb33836040518363ffffffff1660e01b8152600401808373ffffffffffffffffffffffffffffffffffffffff1673ffffffffffffffffffffffffffffffffffffffff16815260200182815260200192505050602060405180830381600087803b1580156102b657600080fd5b505af11580156102ca573d6000803e3d6000fd5b505050506040513d60208110156102e057600080fd5b81019080805190602001909291905050505050565b600160009054906101000a900473ffffffffffffffffffffffffffffffffffffffff168156fea265627a7a7231582054ee29d1e7d477ae7ec96e8717702ff872ac77d29bc2e85fdee62d0c441cc46064736f6c63430005100032546f6d6964655377617020496e7374616e7420446563656e7472616c697a65642045786368616e6765",
  "source": "pragma solidity ^0.5.16;\n\nimport \"./Token.sol\";\n\ncontract TomideSwap {\n    string public name = \"TomideSwap Instant Decentralized Exchange\";\n    DappToken public token;\n    uint public rate = 100;\n\n    constructor(DappToken _token) public {\n        token = _token;\n    }\n\n    function buyTokens() public payable {\n        // calculate the amount of tokens to buy\n        uint tokenAmount = rate * msg.value;\n        token.transfer(msg.sender, tokenAmount);\n    }\n}",
  "sourcePath": "/Users/tomiiide/Lab/eth_swap/src/contracts/TomideSwap.sol",
  "compiler": {
    "name": "solc",
    "version": "0.5.16+commit.9c3226ce.Emscripten.clang"
  },
  "schemaVersion": "3.0.23",
  "updatedAt": "2021-04-03T08:56:19.524Z",
  "networkType": "ethereum",
  "devdoc": {
    "methods": {}
  },
  "userdoc": {
    "methods": {}
  }
}